{
  "contractName": "Governance",
  "abi": [
    {
      "inputs": [],
      "payable": false,
      "stateMutability": "nonpayable",
      "type": "constructor"
    },
    {
      "anonymous": false,
      "inputs": [
        {
          "indexed": true,
          "internalType": "bytes8",
          "name": "from",
          "type": "bytes8"
        },
        {
          "indexed": true,
          "internalType": "bytes8",
          "name": "to",
          "type": "bytes8"
        }
      ],
      "name": "disableRule_evt",
      "type": "event"
    },
    {
      "anonymous": false,
      "inputs": [
        {
          "indexed": true,
          "internalType": "bytes8",
          "name": "from",
          "type": "bytes8"
        },
        {
          "indexed": true,
          "internalType": "bytes8",
          "name": "to",
          "type": "bytes8"
        }
      ],
      "name": "enableRule_evt",
      "type": "event"
    },
    {
      "anonymous": false,
      "inputs": [
        {
          "indexed": true,
          "internalType": "bytes32",
          "name": "obj",
          "type": "bytes32"
        },
        {
          "indexed": true,
          "internalType": "bytes8",
          "name": "permission",
          "type": "bytes8"
        }
      ],
      "name": "eventobject",
      "type": "event"
    },
    {
      "anonymous": false,
      "inputs": [
        {
          "indexed": true,
          "internalType": "address",
          "name": "sub",
          "type": "address"
        },
        {
          "indexed": true,
          "internalType": "bytes8",
          "name": "permission",
          "type": "bytes8"
        }
      ],
      "name": "eventsubject",
      "type": "event"
    },
    {
      "anonymous": false,
      "inputs": [
        {
          "indexed": false,
          "internalType": "address",
          "name": "_addr",
          "type": "address"
        },
        {
          "indexed": false,
          "internalType": "bytes8",
          "name": "_code",
          "type": "bytes8"
        },
        {
          "indexed": false,
          "internalType": "string",
          "name": "_name",
          "type": "string"
        }
      ],
      "name": "registerContract_evt",
      "type": "event"
    },
    {
      "constant": true,
      "inputs": [],
      "name": "contractCode",
      "outputs": [
        {
          "internalType": "bytes8",
          "name": "",
          "type": "bytes8"
        }
      ],
      "payable": false,
      "stateMutability": "view",
      "type": "function"
    },
    {
      "constant": true,
      "inputs": [
        {
          "internalType": "address",
          "name": "",
          "type": "address"
        }
      ],
      "name": "contractRegis",
      "outputs": [
        {
          "internalType": "bytes8",
          "name": "contractCode",
          "type": "bytes8"
        },
        {
          "internalType": "string",
          "name": "contractName",
          "type": "string"
        }
      ],
      "payable": false,
      "stateMutability": "view",
      "type": "function"
    },
    {
      "constant": true,
      "inputs": [
        {
          "internalType": "bytes32",
          "name": "",
          "type": "bytes32"
        }
      ],
      "name": "object",
      "outputs": [
        {
          "internalType": "bytes8",
          "name": "",
          "type": "bytes8"
        }
      ],
      "payable": false,
      "stateMutability": "view",
      "type": "function"
    },
    {
      "constant": true,
      "inputs": [
        {
          "internalType": "bytes8",
          "name": "",
          "type": "bytes8"
        },
        {
          "internalType": "bytes8",
          "name": "",
          "type": "bytes8"
        }
      ],
      "name": "ruleEngine",
      "outputs": [
        {
          "internalType": "bool",
          "name": "",
          "type": "bool"
        }
      ],
      "payable": false,
      "stateMutability": "view",
      "type": "function"
    },
    {
      "constant": true,
      "inputs": [
        {
          "internalType": "address",
          "name": "",
          "type": "address"
        }
      ],
      "name": "subject",
      "outputs": [
        {
          "internalType": "bytes8",
          "name": "",
          "type": "bytes8"
        }
      ],
      "payable": false,
      "stateMutability": "view",
      "type": "function"
    },
    {
      "constant": true,
      "inputs": [
        {
          "internalType": "bytes8",
          "name": "_sub",
          "type": "bytes8"
        },
        {
          "internalType": "bytes8",
          "name": "_obj",
          "type": "bytes8"
        }
      ],
      "name": "permissionCheck",
      "outputs": [
        {
          "internalType": "bool",
          "name": "result",
          "type": "bool"
        }
      ],
      "payable": false,
      "stateMutability": "pure",
      "type": "function"
    },
    {
      "constant": true,
      "inputs": [
        {
          "internalType": "address",
          "name": "from",
          "type": "address"
        }
      ],
      "name": "ruleCheck",
      "outputs": [
        {
          "internalType": "bool",
          "name": "result",
          "type": "bool"
        }
      ],
      "payable": false,
      "stateMutability": "view",
      "type": "function"
    },
    {
      "constant": false,
      "inputs": [
        {
          "internalType": "address",
          "name": "sub",
          "type": "address"
        },
        {
          "internalType": "bytes8",
          "name": "perm",
          "type": "bytes8"
        }
      ],
      "name": "addPermissionSubject",
      "outputs": [
        {
          "internalType": "bool",
          "name": "result",
          "type": "bool"
        }
      ],
      "payable": false,
      "stateMutability": "nonpayable",
      "type": "function"
    },
    {
      "constant": false,
      "inputs": [
        {
          "internalType": "bytes32",
          "name": "obj",
          "type": "bytes32"
        },
        {
          "internalType": "bytes8",
          "name": "perm",
          "type": "bytes8"
        }
      ],
      "name": "addPermissionObject",
      "outputs": [
        {
          "internalType": "bool",
          "name": "result",
          "type": "bool"
        }
      ],
      "payable": false,
      "stateMutability": "nonpayable",
      "type": "function"
    },
    {
      "constant": false,
      "inputs": [
        {
          "internalType": "bytes8",
          "name": "from",
          "type": "bytes8"
        },
        {
          "internalType": "bytes8",
          "name": "to",
          "type": "bytes8"
        }
      ],
      "name": "enableRule",
      "outputs": [
        {
          "internalType": "bool",
          "name": "result",
          "type": "bool"
        }
      ],
      "payable": false,
      "stateMutability": "nonpayable",
      "type": "function"
    },
    {
      "constant": false,
      "inputs": [
        {
          "internalType": "bytes8",
          "name": "from",
          "type": "bytes8"
        },
        {
          "internalType": "bytes8",
          "name": "to",
          "type": "bytes8"
        }
      ],
      "name": "disableRule",
      "outputs": [
        {
          "internalType": "bool",
          "name": "result",
          "type": "bool"
        }
      ],
      "payable": false,
      "stateMutability": "nonpayable",
      "type": "function"
    },
    {
      "constant": false,
      "inputs": [
        {
          "internalType": "address",
          "name": "_addr",
          "type": "address"
        },
        {
          "internalType": "bytes8",
          "name": "_code",
          "type": "bytes8"
        },
        {
          "internalType": "string",
          "name": "_name",
          "type": "string"
        }
      ],
      "name": "registerContract",
      "outputs": [
        {
          "internalType": "bool",
          "name": "result",
          "type": "bool"
        }
      ],
      "payable": false,
      "stateMutability": "nonpayable",
      "type": "function"
    }
  ],
  "bytecode": "0x608060405234801561001057600080fd5b50336000908152600160208181526040808420805467ffffffffffffffff19908116670fffffffffffffff1790915581518083018352780100000000000000000000000000000000000000000000000080825283518085018552600a81527f476f7665726e616e63650000000000000000000000000000000000000000000081870152828601908152308852600386529390962081518154979004969092169590951781559051805191936100cb93908501929101906100d4565b5090505061016f565b828054600181600116156101000203166002900490600052602060002090601f016020900481019282601f1061011557805160ff1916838001178555610142565b82800160010185558215610142579182015b82811115610142578251825591602001919060010190610127565b5061014e929150610152565b5090565b61016c91905b8082111561014e5760008155600101610158565b90565b610c978061017e6000396000f3fe608060405234801561001057600080fd5b50600436106100f1576000357c0100000000000000000000000000000000000000000000000000000000900480635c44bfcb1161009e578063937567501161007857806393756750146103cb578063b049eb61146103fa578063ff55d87814610429576100f1565b80635c44bfcb14610361578063635912d51461036957806382f6f81514610398576100f1565b8063415d920d116100cf578063415d920d146101a45780635086ab231461027657806353d0ff5314610332576100f1565b806305ad1456146100f6578063216f1308146101305780633ce605c814610171575b600080fd5b6101136004803603602081101561010c57600080fd5b503561046c565b60408051600160c060020a03199092168252519081900360200190f35b61015d6004803603604081101561014657600080fd5b5080359060200135600160c060020a031916610484565b604080519115158252519081900360200190f35b61015d6004803603602081101561018757600080fd5b503573ffffffffffffffffffffffffffffffffffffffff16610565565b61015d600480360360608110156101ba57600080fd5b73ffffffffffffffffffffffffffffffffffffffff82351691600160c060020a03196020820135169181019060608101604082013564010000000081111561020157600080fd5b82018360208201111561021357600080fd5b8035906020019184600183028401116401000000008311171561023557600080fd5b91908080601f0160208091040260200160405190810160405280939291908181526020018383808284376000920191909152509295506105c5945050505050565b6102a96004803603602081101561028c57600080fd5b503573ffffffffffffffffffffffffffffffffffffffff166107ca565b60408051600160c060020a03198416815260208082018381528451938301939093528351919291606084019185019080838360005b838110156102f65781810151838201526020016102de565b50505050905090810190601f1680156103235780820380516001836020036101000a031916815260200191505b50935050505060405180910390f35b61015d6004803603604081101561034857600080fd5b50600160c060020a03198135811691602001351661087b565b610113610969565b61015d6004803603604081101561037f57600080fd5b50600160c060020a031981358116916020013516610975565b610113600480360360208110156103ae57600080fd5b503573ffffffffffffffffffffffffffffffffffffffff16610994565b61015d600480360360408110156103e157600080fd5b50600160c060020a0319813581169160200135166109ac565b61015d6004803603604081101561041057600080fd5b50600160c060020a031981358116916020013516610a96565b61015d6004803603604081101561043f57600080fd5b50803573ffffffffffffffffffffffffffffffffffffffff169060200135600160c060020a031916610ab6565b60026020526000908152604090205460c060020a0281565b3360009081526001602090815260408220547fe6a6bdf4f80c25a08614ac1cc38f8a6866094aaae2eb1386d824a04b67b1a9f480845260029092527fd3c5e0e89c6fd7472982158a4ec9d6c6b991acef93ac6b8de6a1dda6c16e36e2546104f49160c060020a9081029102610975565b6104fd57600080fd5b604051600160c060020a031984169085907f57033c08f4ccc9c3a5bb387bb06164b82965c951648fa100ea9cd2b060229f6990600090a35050600091825260026020526040909120805467ffffffffffffffff191660c060020a909204919091179055600190565b73ffffffffffffffffffffffffffffffffffffffff16600090815260036020818152604080842054600160c060020a031960c060020a91820281168652600484528286203387529484528286205490910216845291905290205460ff1690565b3360009081526001602090815260408220547fabb38c2df84dd6a2602aab61ef7d43dabe1e3019f91b3b535bdd69201357f3b680845260029092527fbb65ee074271d13172389d4c460abdf7b3c0717716aad7c996bafb0276d29950546106359160c060020a9081029102610975565b61063e57600080fd5b7f1bde2d35fd926ea2128b92add92fa7434bdd0a5d744f3279f827a6b5a6908a33858585604051808473ffffffffffffffffffffffffffffffffffffffff1673ffffffffffffffffffffffffffffffffffffffff1681526020018377ffffffffffffffffffffffffffffffffffffffffffffffff191677ffffffffffffffffffffffffffffffffffffffffffffffff1916815260200180602001828103825283818151815260200191508051906020019080838360005b8381101561070d5781810151838201526020016106f5565b50505050905090810190601f16801561073a5780820380516001836020036101000a031916815260200191505b5094505050505060405180910390a1604080518082018252600160c060020a031986168152602080820186815273ffffffffffffffffffffffffffffffffffffffff8916600090815260038352939093208251815467ffffffffffffffff191660c060020a909104178155925180519293926107bc9260018501920190610bc7565b506001979650505050505050565b6003602090815260009182526040918290208054600180830180548651600261010094831615949094026000190190911692909204601f810186900486028301860190965285825260c060020a9092029492939092908301828280156108715780601f1061084657610100808354040283529160200191610871565b820191906000526020600020905b81548152906001019060200180831161085457829003601f168201915b5050505050905082565b3360009081526001602090815260408220547f60e4bc6916f055bd8ec78b0fb09acc593683868e7489071f28e97f17a67023c280845260029092527f05ab284f3aa357d1cef3dab21f6a8b39f82689ee2d2cee113f148832ec03eba6546108eb9160c060020a9081029102610975565b6108f457600080fd5b604051600160c060020a031980851691908616907fbb1eaf07be31386568faba2d38f8f6e1530bffbae752b910658a65b347609c4b90600090a35050600160c060020a031991821660009081526004602090815260408083209390941682529190915220805460ff1916600190811790915590565b60005460c060020a0281565b6000600160c060020a031983831683181661098e575060015b92915050565b60016020526000908152604090205460c060020a0281565b3360009081526001602090815260408220547fa48594fcd0c5e85901eb04704a60bdec055e99ace219c1bc71cc57071daae99c80845260029092527f247452525611779ed61883320de7e9ef942797464e43bdbfea9adf2c08e1da3f54610a1c9160c060020a9081029102610975565b610a2557600080fd5b604051600160c060020a031980851691908616907f5a1f39e0fbc9ee295fa44d04ad2f5fe72438e55ecc106e7b506c395f4a1ff39f90600090a35050600160c060020a031991821660009081526004602090815260408083209390941682529190915220805460ff19169055600190565b600460209081526000928352604080842090915290825290205460ff1681565b3360009081526001602090815260408220547fe2f77eda07301dcdfd75d8cb122d00e11c3c76cd1d95474354a43f0a6136e1aa80845260029092527f577e2cd026e5e9ffd351cc64d90e63642da976aeb0a74e63e1739dad8f89df7254610b269160c060020a9081029102610975565b610b2f57600080fd5b604051600160c060020a031984169073ffffffffffffffffffffffffffffffffffffffff8616907f02447c925432827c75b2c492811b3cdfbbc6b41241d69a0881d0fd38148f6d4090600090a3505073ffffffffffffffffffffffffffffffffffffffff919091166000908152600160208190526040909120805467ffffffffffffffff191660c060020a9093049290921790915590565b828054600181600116156101000203166002900490600052602060002090601f016020900481019282601f10610c0857805160ff1916838001178555610c35565b82800160010185558215610c35579182015b82811115610c35578251825591602001919060010190610c1a565b50610c41929150610c45565b5090565b610c5f91905b80821115610c415760008155600101610c4b565b9056fea265627a7a723158202d2e67ab61d25c4ec3dd234bf636590938738100df6e63cd7ed701e5250f7a7c64736f6c634300050f0032",
  "source": "pragma solidity 0.5.15;\n\nimport \"./Governance_ds.sol\";\n\n/**\n * @title Governance contract for Tokenz STO platform v0.1\n * @dev A base contract to enforce Governance on entire system\n * @author Harsh Patel / harsh.patel54@gmail.com\n */\ncontract Governance is Governance_ds{\n\n\n    modifier mod_isValidPerm(bytes32 objid){\n        require(permissionCheck(subject[msg.sender],object[objid]));\n        _;\n    }\n\n    constructor()\n        public\n    {\n        subject[msg.sender] = 0x0FFFFFFFFFFFFFFF;\n        contractRegis[address(this)] = contractDetails(0x0000000000000001,\"Governance\");\n    }\n\n    /**\n        @notice permissionCheck Checks permission of subject and object\n        @dev This is function pure and public with no modifiers but other modifiers use this function\n        @param _sub The bytes representing subject\n        @param _obj The bytes representing object\n        @return {\n          \"result\": \"Returns true if permission match\"\n        }\n    */\n    function permissionCheck(bytes8 _sub, bytes8 _obj) public pure returns ( bool  result ) {\n        if ( ( (_sub & _obj )^_obj ) == 0) {\n            result = true;\n        }\n    }\n\n    /**\n        @notice ruleCheck Function to check the ruleEngine in governance Contract\n        @dev This is function public with view rights\n        @param from The contractCode representing the senders contracts\n        @return {\n          \"result\": \"Returns true if function executed successfully\"\n        }\n    */\n    function ruleCheck( address from )\n        view\n        public\n        returns ( bool result )\n    {\n        result = ruleEngine[contractRegis[from].contractCode][contractRegis[msg.sender].contractCode];\n    }\n\n    /**\n        @notice addPermissionSubject Function to alot permission to subject\n        @dev This is function public with modifier mod_isValidPerm\n        @param sub The address of the subject\n        @param perm The bytes representing subject\n        @return {\n          \"result\": \"Returns true if function executed successfully\"\n        }\n    */\n    function addPermissionSubject ( address sub , bytes8 perm )\n        public\n        mod_isValidPerm(0xe2f77eda07301dcdfd75d8cb122d00e11c3c76cd1d95474354a43f0a6136e1aa)\n        returns ( bool result )\n    {\n        emit eventsubject(sub,perm);\n        subject[sub] = perm;\n        result = true;\n    }\n\n    /**\n        @notice addPermissionObject Function to alot permission to object\n        @dev This is function public with modifier mod_isValidPerm\n        @param obj The bytes reprresenting the object\n        @param perm The bytes representing object\n        @return {\n          \"result\": \"Returns true if function executed successfully\"\n        }\n    */\n    function addPermissionObject ( bytes32 obj,bytes8 perm )\n        public\n        mod_isValidPerm(0xe6a6bdf4f80c25a08614ac1cc38f8a6866094aaae2eb1386d824a04b67b1a9f4)\n        returns ( bool result)\n    {\n        emit eventobject(obj,perm);\n        object[obj] = perm;\n        result = true;\n    }\n\n    /**\n        @notice enableRule Function to enables rules in governance Contract\n        @dev This is function public with modifier mod_isValidPerm\n        @param from The contractCode representing the senders contracts\n        @param to The contractCode representing the receivers contracts\n        @return {\n          \"result\": \"Returns true if function executed successfully\"\n        }\n    */\n    function enableRule( bytes8 from , bytes8 to )\n        mod_isValidPerm(0x60e4bc6916f055bd8ec78b0fb09acc593683868e7489071f28e97f17a67023c2)\n        public\n        returns ( bool result )\n    {\n        emit enableRule_evt( from , to );\n        ruleEngine[from][to] = true;\n        result = true;\n    }\n\n    /**\n        @notice disableRule Function to disable rules in governance Contract\n        @dev This is function public with modifier mod_isValidPerm\n        @param from The contractCode representing the senders contracts\n        @param to The contractCode representing the receivers contracts\n        @return {\n          \"result\": \"Returns true if function executed successfully\"\n        }\n    */\n    function disableRule( bytes8 from , bytes8 to )\n        mod_isValidPerm(0xa48594fcd0c5e85901eb04704a60bdec055e99ace219c1bc71cc57071daae99c)\n        public\n        returns ( bool result )\n    {\n        emit disableRule_evt( from , to );\n        ruleEngine[from][to] = false;\n        result = true;\n    }\n\n    /**\n        @notice registerContract Function to check the ruleEngine in governance Contract\n        @dev This is function public with view privilage\n        @param _addr The address of the Contract created\n        @param _code The contract Code of the contract created.\n        @param _name The contract Name of the contract created.\n        @return {\n          \"result\": \"Returns true if function executed successfully\"\n        }\n    */\n    function registerContract( address _addr , bytes8 _code , string memory _name )\n        mod_isValidPerm(0xabb38c2df84dd6a2602aab61ef7d43dabe1e3019f91b3b535bdd69201357f3b6)\n        public\n        returns ( bool result )\n    {\n        emit registerContract_evt(_addr , _code , _name );\n        contractRegis[_addr] = contractDetails( _code , _name );\n        result = true;\n    }\n\n}\n",
  "sourcePath": "/Users/nonce-2/codebase/git/tokenz/v2/contracts/MFCP-Core-Contracts/contracts/governance/Governance.sol",
  "compiler": {
    "name": "solc",
    "version": "0.5.15+commit.6a57276f.Emscripten.clang"
  },
  "schemaVersion": "3.0.18",
  "updatedAt": "2020-01-29T13:20:15.876Z",
  "networkType": "quorum",
  "devdoc": {
    "author": "Harsh Patel / harsh.patel54@gmail.com",
    "details": "A base contract to enforce Governance on entire system",
    "methods": {
      "addPermissionObject(bytes32,bytes8)": {
        "details": "This is function public with modifier mod_isValidPerm",
        "params": {
          "obj": "The bytes reprresenting the object",
          "perm": "The bytes representing object"
        },
        "return": "{ \"result\": \"Returns true if function executed successfully\" }"
      },
      "addPermissionSubject(address,bytes8)": {
        "details": "This is function public with modifier mod_isValidPerm",
        "params": {
          "perm": "The bytes representing subject",
          "sub": "The address of the subject"
        },
        "return": "{ \"result\": \"Returns true if function executed successfully\" }"
      },
      "disableRule(bytes8,bytes8)": {
        "details": "This is function public with modifier mod_isValidPerm",
        "params": {
          "from": "The contractCode representing the senders contracts",
          "to": "The contractCode representing the receivers contracts"
        },
        "return": "{ \"result\": \"Returns true if function executed successfully\" }"
      },
      "enableRule(bytes8,bytes8)": {
        "details": "This is function public with modifier mod_isValidPerm",
        "params": {
          "from": "The contractCode representing the senders contracts",
          "to": "The contractCode representing the receivers contracts"
        },
        "return": "{ \"result\": \"Returns true if function executed successfully\" }"
      },
      "permissionCheck(bytes8,bytes8)": {
        "details": "This is function pure and public with no modifiers but other modifiers use this function",
        "params": {
          "_obj": "The bytes representing object",
          "_sub": "The bytes representing subject"
        },
        "return": "{ \"result\": \"Returns true if permission match\" }"
      },
      "registerContract(address,bytes8,string)": {
        "details": "This is function public with view privilage",
        "params": {
          "_addr": "The address of the Contract created",
          "_code": "The contract Code of the contract created.",
          "_name": "The contract Name of the contract created."
        },
        "return": "{ \"result\": \"Returns true if function executed successfully\" }"
      },
      "ruleCheck(address)": {
        "details": "This is function public with view rights",
        "params": {
          "from": "The contractCode representing the senders contracts"
        },
        "return": "{ \"result\": \"Returns true if function executed successfully\" }"
      }
    },
    "title": "Governance contract for Tokenz STO platform v0.1"
  },
  "userdoc": {
    "methods": {
      "addPermissionObject(bytes32,bytes8)": {
        "notice": "addPermissionObject Function to alot permission to object"
      },
      "addPermissionSubject(address,bytes8)": {
        "notice": "addPermissionSubject Function to alot permission to subject"
      },
      "disableRule(bytes8,bytes8)": {
        "notice": "disableRule Function to disable rules in governance Contract"
      },
      "enableRule(bytes8,bytes8)": {
        "notice": "enableRule Function to enables rules in governance Contract"
      },
      "permissionCheck(bytes8,bytes8)": {
        "notice": "permissionCheck Checks permission of subject and object"
      },
      "registerContract(address,bytes8,string)": {
        "notice": "registerContract Function to check the ruleEngine in governance Contract"
      },
      "ruleCheck(address)": {
        "notice": "ruleCheck Function to check the ruleEngine in governance Contract"
      }
    }
  }
}